{
  "_format": "hh-sol-artifact-1",
  "contractName": "CinemaMarket",
  "sourceName": "contracts/CinemaMarket.sol",
  "abi": [
    {
      "inputs": [],
      "stateMutability": "nonpayable",
      "type": "constructor"
    },
    {
      "inputs": [],
      "name": "ReentrancyGuardReentrantCall",
      "type": "error"
    },
    {
      "anonymous": false,
      "inputs": [
        {
          "indexed": true,
          "internalType": "uint256",
          "name": "itemID",
          "type": "uint256"
        },
        {
          "indexed": false,
          "internalType": "string",
          "name": "name",
          "type": "string"
        },
        {
          "indexed": true,
          "internalType": "address",
          "name": "nftContract",
          "type": "address"
        },
        {
          "indexed": false,
          "internalType": "address",
          "name": "owner",
          "type": "address"
        }
      ],
      "name": "CinemaCreated",
      "type": "event"
    },
    {
      "anonymous": false,
      "inputs": [
        {
          "indexed": true,
          "internalType": "uint256",
          "name": "itemID",
          "type": "uint256"
        },
        {
          "indexed": true,
          "internalType": "address",
          "name": "nftContract",
          "type": "address"
        },
        {
          "indexed": true,
          "internalType": "uint256",
          "name": "tokenID",
          "type": "uint256"
        },
        {
          "indexed": false,
          "internalType": "address",
          "name": "seller",
          "type": "address"
        },
        {
          "indexed": false,
          "internalType": "address",
          "name": "owner",
          "type": "address"
        },
        {
          "indexed": false,
          "internalType": "uint256",
          "name": "price",
          "type": "uint256"
        },
        {
          "indexed": false,
          "internalType": "bool",
          "name": "sold",
          "type": "bool"
        }
      ],
      "name": "MarketItemCreated",
      "type": "event"
    },
    {
      "anonymous": false,
      "inputs": [
        {
          "indexed": true,
          "internalType": "uint256",
          "name": "itemID",
          "type": "uint256"
        },
        {
          "indexed": true,
          "internalType": "address",
          "name": "nftContract",
          "type": "address"
        },
        {
          "indexed": true,
          "internalType": "uint256",
          "name": "tokenID",
          "type": "uint256"
        },
        {
          "indexed": false,
          "internalType": "address",
          "name": "newOwner",
          "type": "address"
        },
        {
          "indexed": false,
          "internalType": "uint256",
          "name": "price",
          "type": "uint256"
        }
      ],
      "name": "MarketItemSold",
      "type": "event"
    },
    {
      "anonymous": false,
      "inputs": [
        {
          "indexed": true,
          "internalType": "uint256",
          "name": "itemID",
          "type": "uint256"
        },
        {
          "indexed": false,
          "internalType": "string",
          "name": "title",
          "type": "string"
        },
        {
          "indexed": true,
          "internalType": "address",
          "name": "nftContract",
          "type": "address"
        },
        {
          "indexed": false,
          "internalType": "address",
          "name": "owner",
          "type": "address"
        },
        {
          "indexed": false,
          "internalType": "uint256",
          "name": "price",
          "type": "uint256"
        },
        {
          "indexed": false,
          "internalType": "string",
          "name": "ticketURI",
          "type": "string"
        }
      ],
      "name": "TicketCreated",
      "type": "event"
    },
    {
      "inputs": [
        {
          "internalType": "string",
          "name": "tokenName",
          "type": "string"
        }
      ],
      "name": "createCinemaChain",
      "outputs": [
        {
          "internalType": "address",
          "name": "",
          "type": "address"
        }
      ],
      "stateMutability": "nonpayable",
      "type": "function"
    },
    {
      "inputs": [
        {
          "internalType": "address",
          "name": "nftContract",
          "type": "address"
        },
        {
          "internalType": "uint256",
          "name": "tokenID",
          "type": "uint256"
        },
        {
          "internalType": "uint256",
          "name": "price",
          "type": "uint256"
        }
      ],
      "name": "createMarketItem",
      "outputs": [],
      "stateMutability": "payable",
      "type": "function"
    },
    {
      "inputs": [
        {
          "internalType": "address",
          "name": "nftContract",
          "type": "address"
        },
        {
          "internalType": "uint256",
          "name": "tokenID",
          "type": "uint256"
        },
        {
          "internalType": "uint256",
          "name": "price",
          "type": "uint256"
        },
        {
          "internalType": "address",
          "name": "minter",
          "type": "address"
        }
      ],
      "name": "createMarketItemFromNFT",
      "outputs": [],
      "stateMutability": "payable",
      "type": "function"
    },
    {
      "inputs": [
        {
          "internalType": "address",
          "name": "nftContract",
          "type": "address"
        },
        {
          "internalType": "uint256",
          "name": "itemID",
          "type": "uint256"
        }
      ],
      "name": "createMarketSale",
      "outputs": [],
      "stateMutability": "payable",
      "type": "function"
    },
    {
      "inputs": [
        {
          "internalType": "address",
          "name": "cinemaAddress",
          "type": "address"
        },
        {
          "internalType": "string",
          "name": "filmName",
          "type": "string"
        },
        {
          "internalType": "string",
          "name": "ticketURI",
          "type": "string"
        },
        {
          "internalType": "uint256",
          "name": "price",
          "type": "uint256"
        },
        {
          "internalType": "string",
          "name": "screenId",
          "type": "string"
        }
      ],
      "name": "createTicket",
      "outputs": [],
      "stateMutability": "payable",
      "type": "function"
    },
    {
      "inputs": [],
      "name": "fetchCinemaChains",
      "outputs": [
        {
          "components": [
            {
              "internalType": "uint256",
              "name": "itemID",
              "type": "uint256"
            },
            {
              "internalType": "string",
              "name": "name",
              "type": "string"
            },
            {
              "internalType": "address",
              "name": "nftContract",
              "type": "address"
            },
            {
              "internalType": "address payable",
              "name": "owner",
              "type": "address"
            }
          ],
          "internalType": "struct CinemaMarket.CinemaItem[]",
          "name": "",
          "type": "tuple[]"
        }
      ],
      "stateMutability": "view",
      "type": "function"
    },
    {
      "inputs": [],
      "name": "fetchMarketItems",
      "outputs": [
        {
          "components": [
            {
              "internalType": "uint256",
              "name": "itemID",
              "type": "uint256"
            },
            {
              "internalType": "address",
              "name": "nftContract",
              "type": "address"
            },
            {
              "internalType": "uint256",
              "name": "tokenID",
              "type": "uint256"
            },
            {
              "internalType": "address payable",
              "name": "seller",
              "type": "address"
            },
            {
              "internalType": "address payable",
              "name": "owner",
              "type": "address"
            },
            {
              "internalType": "uint256",
              "name": "price",
              "type": "uint256"
            },
            {
              "internalType": "bool",
              "name": "sold",
              "type": "bool"
            }
          ],
          "internalType": "struct CinemaMarket.MarketItem[]",
          "name": "",
          "type": "tuple[]"
        }
      ],
      "stateMutability": "view",
      "type": "function"
    },
    {
      "inputs": [
        {
          "internalType": "string",
          "name": "screenId",
          "type": "string"
        }
      ],
      "name": "fetchTicketsByScreenId",
      "outputs": [
        {
          "components": [
            {
              "internalType": "uint256",
              "name": "itemID",
              "type": "uint256"
            },
            {
              "internalType": "string",
              "name": "title",
              "type": "string"
            },
            {
              "internalType": "address",
              "name": "nftContract",
              "type": "address"
            },
            {
              "internalType": "address payable",
              "name": "owner",
              "type": "address"
            },
            {
              "internalType": "uint256",
              "name": "price",
              "type": "uint256"
            },
            {
              "internalType": "string",
              "name": "screenId",
              "type": "string"
            },
            {
              "internalType": "string",
              "name": "uri",
              "type": "string"
            }
          ],
          "internalType": "struct CinemaMarket.TicketItem[]",
          "name": "",
          "type": "tuple[]"
        }
      ],
      "stateMutability": "view",
      "type": "function"
    },
    {
      "inputs": [
        {
          "internalType": "address",
          "name": "ticketOwner",
          "type": "address"
        }
      ],
      "name": "fetchTicketsForOwner",
      "outputs": [
        {
          "components": [
            {
              "internalType": "uint256",
              "name": "itemID",
              "type": "uint256"
            },
            {
              "internalType": "string",
              "name": "title",
              "type": "string"
            },
            {
              "internalType": "address",
              "name": "nftContract",
              "type": "address"
            },
            {
              "internalType": "address payable",
              "name": "owner",
              "type": "address"
            },
            {
              "internalType": "uint256",
              "name": "price",
              "type": "uint256"
            },
            {
              "internalType": "string",
              "name": "screenId",
              "type": "string"
            },
            {
              "internalType": "string",
              "name": "uri",
              "type": "string"
            }
          ],
          "internalType": "struct CinemaMarket.TicketItem[]",
          "name": "",
          "type": "tuple[]"
        }
      ],
      "stateMutability": "view",
      "type": "function"
    },
    {
      "inputs": [],
      "name": "getNumberOfTickets",
      "outputs": [
        {
          "internalType": "uint256",
          "name": "",
          "type": "uint256"
        }
      ],
      "stateMutability": "view",
      "type": "function"
    },
    {
      "inputs": [],
      "name": "owner",
      "outputs": [
        {
          "internalType": "address payable",
          "name": "",
          "type": "address"
        }
      ],
      "stateMutability": "view",
      "type": "function"
    },
    {
      "inputs": [
        {
          "internalType": "address",
          "name": "usdcAddress",
          "type": "address"
        }
      ],
      "name": "setUSDCAddress",
      "outputs": [],
      "stateMutability": "nonpayable",
      "type": "function"
    }
  ],
  "bytecode": "0x6080604052600260065534801561001557600080fd5b506001600055600580546001600160a01b031916331790556137be8061003c6000396000f3fe608060405260043610620000b55760003560e01c80638da5cb5b116200006c5780638da5cb5b14620001965780639582260a14620001b85780639af1179e14620001d8578063aaf5bfc3146200020c578063b3c171851462000231578063c23b139e146200025657600080fd5b80630f08efe014620000ba5780631d6e9fc914620000ea578063384170ea146200011157806358eb2df5146200012a5780635a89fda41462000141578063803683891462000158575b600080fd5b348015620000c757600080fd5b50620000d26200026d565b604051620000e19190620016cf565b60405180910390f35b348015620000f757600080fd5b506200010262000400565b604051620000e19190620017b9565b620001286200012236600462001873565b620005ba565b005b620001286200013b366004620018be565b62000763565b62000128620001523660046200199f565b6200096c565b3480156200016557600080fd5b506200017d6200017736600462001a4e565b62000bbe565b6040516001600160a01b039091168152602001620000e1565b348015620001a357600080fd5b506005546200017d906001600160a01b031681565b348015620001c557600080fd5b50600354604051908152602001620000e1565b348015620001e557600080fd5b50620001fd620001f736600462001a8f565b62000cf9565b604051620000e1919062001ab4565b3480156200021957600080fd5b50620001286200022b36600462001a8f565b62000fe3565b3480156200023e57600080fd5b50620001fd6200025036600462001a4e565b62001064565b620001286200026736600462001b8b565b6200138b565b6001546002546060919060009062000286908362001bce565b90506000808267ffffffffffffffff811115620002a757620002a7620018f4565b6040519080825280602002602001820160405280156200031057816020015b6040805160e08101825260008082526020808301829052928201819052606082018190526080820181905260a0820181905260c08201528252600019909201910181620002c65790505b50905060005b84811015620003f7576000818152600860205260409020600401546001600160a01b0316620003ee5760008181526008602090815260408083205480845292819020815160e0810183528154815260018201546001600160a01b039081169482019490945260028201549281019290925260038101548316606083015260048101549092166080820152600582015460a0820152600682015460ff16151560c08201528451859087908110620003d057620003d062001bea565b60200260200101819052508480620003e89062001c00565b95505050505b60010162000316565b50949350505050565b6060600060045467ffffffffffffffff811115620004225762000422620018f4565b6040519080825280602002602001820160405280156200049357816020015b6200047f6040518060800160405280600081526020016060815260200160006001600160a01b0316815260200160006001600160a01b031681525090565b815260200190600190039081620004415790505b50905060005b600454811015620005b457600a600082815260200190815260200160002060405180608001604052908160008201548152602001600182018054620004de9062001c1c565b80601f01602080910402602001604051908101604052809291908181526020018280546200050c9062001c1c565b80156200055d5780601f1062000531576101008083540402835291602001916200055d565b820191906000526020600020905b8154815290600101906020018083116200053f57829003601f168201915b505050918352505060028201546001600160a01b0390811660208301526003909201549091166040909101528251839083908110620005a057620005a062001bea565b602090810291909101015260010162000499565b50919050565b620005c462001647565b600180546040805160e0810182528281526001600160a01b0388811660208084018281528486018b81528985166060870190815260006080880181815260a089018e815260c08a018381528c84526008909752918a90209851895593519a880180546001600160a01b03199081169c89169c909c17905591516002880155516003870180548b16918716919091179055905160048087018054909a1691909516179097559551600584015594516006909201805460ff19169215159290921790915590516323b872dd60e01b81529192916323b872dd91620006ad91869130918a910162001c52565b600060405180830381600087803b158015620006c857600080fd5b505af1158015620006dd573d6000803e3d6000fd5b5050604080516001600160a01b03868116825260006020830181905282840189905260608301529151889450918916925084917f045dfa01dcba2b36aba1d3dc4a874f4b0c5d2fbeb8d2c4b34a7d88c8d8f929d19181900360800190a4600180549060006200074c8362001c00565b9190505550506200075d6001600055565b50505050565b6200076d62001647565b600180546040805160e0810182528281526001600160a01b0387811660208084018281528486018a8152336060870190815260006080880181815260a089018d815260c08a018381528c84526008909752918a9020985189559351888c0180546001600160a01b0319908116928a16929092179055925160028901559051600388018054841691881691909117905591516004808801805490931691909616179055516005850155516006909301805460ff191693151593909317909255915163a22cb46560e01b81523092810192909252602482019390935290919063a22cb46590604401600060405180830381600087803b1580156200086e57600080fd5b505af115801562000883573d6000803e3d6000fd5b50506040516323b872dd60e01b81526001600160a01b03871692506323b872dd9150620008b99033903090889060040162001c52565b600060405180830381600087803b158015620008d457600080fd5b505af1158015620008e9573d6000803e3d6000fd5b505060408051338152600060208201819052818301879052606082015290518693506001600160a01b038816925084917f045dfa01dcba2b36aba1d3dc4a874f4b0c5d2fbeb8d2c4b34a7d88c8d8f929d1919081900360800190a460018054906000620009568362001c00565b919050555050620009676001600055565b505050565b6200097662001647565b60405163a211937760e01b815285906000906001600160a01b0383169063a211937790620009ab908890339060040162001c76565b6020604051808303816000875af1158015620009cb573d6000803e3d6000fd5b505050506040513d601f19601f82011682018060405250810190620009f1919062001ca2565b6040805160e08101825282815260208082018a81526001600160a01b038716838501523360608401526080830189905260a0830188905260c083018a90526000858152600990925292902081518155915192935091600182019062000a57908262001d10565b5060408201516002820180546001600160a01b039283166001600160a01b03199182161790915560608401516003840180549190931691161790556080820151600482015560a0820151600582019062000ab2908262001d10565b5060c0820151600682019062000ac9908262001d10565b50506007546040516323b872dd60e01b81526001600160a01b0390911691506323b872dd9062000b029033903090899060040162001c52565b6020604051808303816000875af115801562000b22573d6000803e3d6000fd5b505050506040513d601f19601f8201168201806040525081019062000b48919062001ddd565b50866001600160a01b0316817f6b1b15f4c94bf4641811466cba69b87b17c093efd844f744f917aeb41b6ebeab8833888a60405162000b8b949392919062001e01565b60405180910390a36003805490600062000ba58362001c00565b9190505550505062000bb76001600055565b5050505050565b60008082333060405162000bd29062001672565b62000be09392919062001e4b565b604051809103906000f08015801562000bfd573d6000803e3d6000fd5b506004546040805160808101825282815260208082018881526001600160a01b038616838501523360608401526000858152600a9092529290208151815591519394508493909190600182019062000c56908262001d10565b506040828101516002830180546001600160a01b03199081166001600160a01b0393841617909155606090940151600390930180549094169281169290921790925590519083169082907f35cbe5f3ecccefdf0e0af40175ecfd93074ff5e9354380c6c62ac508884f8bed9062000cd1908990339062001c76565b60405180910390a36004805490600062000ceb8362001c00565b909155509195945050505050565b6060600060035467ffffffffffffffff81111562000d1b5762000d1b620018f4565b60405190808252806020026020018201604052801562000d5857816020015b62000d4462001680565b81526020019060019003908162000d3a5790505b50905060005b60035481101562000fdc576000818152600960205260409020600301546001600160a01b0380861691160362000fd357600960008281526020019081526020016000206040518060e00160405290816000820154815260200160018201805462000dc89062001c1c565b80601f016020809104026020016040519081016040528092919081815260200182805462000df69062001c1c565b801562000e475780601f1062000e1b5761010080835404028352916020019162000e47565b820191906000526020600020905b81548152906001019060200180831162000e2957829003601f168201915b505050918352505060028201546001600160a01b03908116602083015260038301541660408201526004820154606082015260058201805460809092019162000e909062001c1c565b80601f016020809104026020016040519081016040528092919081815260200182805462000ebe9062001c1c565b801562000f0f5780601f1062000ee35761010080835404028352916020019162000f0f565b820191906000526020600020905b81548152906001019060200180831162000ef157829003601f168201915b5050505050815260200160068201805462000f2a9062001c1c565b80601f016020809104026020016040519081016040528092919081815260200182805462000f589062001c1c565b801562000fa95780601f1062000f7d5761010080835404028352916020019162000fa9565b820191906000526020600020905b81548152906001019060200180831162000f8b57829003601f168201915b50505050508152505082828151811062000fc75762000fc762001bea565b60200260200101819052505b60010162000d5e565b5092915050565b6005546001600160a01b03163314620010425760405162461bcd60e51b815260206004820152601860248201527f756e74727573746564206d6573736167652073656e6465720000000000000000604482015260640160405180910390fd5b600780546001600160a01b0319166001600160a01b0392909216919091179055565b6060600060035467ffffffffffffffff811115620010865762001086620018f4565b604051908082528060200260200182016040528015620010c357816020015b620010af62001680565b815260200190600190039081620010a55790505b50905060005b60035481101562000fdc576000818152600960209081526040918290209151620010f892600501910162001e80565b604051602081830303815290604052805190602001208460405160200162001121919062001efe565b60405160208183030381529060405280519060200120036200138257600960008281526020019081526020016000206040518060e001604052908160008201548152602001600182018054620011779062001c1c565b80601f0160208091040260200160405190810160405280929190818152602001828054620011a59062001c1c565b8015620011f65780601f10620011ca57610100808354040283529160200191620011f6565b820191906000526020600020905b815481529060010190602001808311620011d857829003601f168201915b505050918352505060028201546001600160a01b0390811660208301526003830154166040820152600482015460608201526005820180546080909201916200123f9062001c1c565b80601f01602080910402602001604051908101604052809291908181526020018280546200126d9062001c1c565b8015620012be5780601f106200129257610100808354040283529160200191620012be565b820191906000526020600020905b815481529060010190602001808311620012a057829003601f168201915b50505050508152602001600682018054620012d99062001c1c565b80601f0160208091040260200160405190810160405280929190818152602001828054620013079062001c1c565b8015620013585780601f106200132c5761010080835404028352916020019162001358565b820191906000526020600020905b8154815290600101906020018083116200133a57829003601f168201915b50505050508152505082828151811062001376576200137662001bea565b60200260200101819052505b600101620010c9565b6200139562001647565b600081815260086020526040908190206005810154600290910154600754925163095ea7b360e01b815230600482015260248101839052919290916001600160a01b039091169063095ea7b3906044016020604051808303816000875af115801562001405573d6000803e3d6000fd5b505050506040513d601f19601f820116820180604052508101906200142b919062001ddd565b50600754600084815260086020526040908190206003015490516323b872dd60e01b81526001600160a01b03928316926323b872dd926200147792339290911690879060040162001c52565b6020604051808303816000875af115801562001497573d6000803e3d6000fd5b505050506040513d601f19601f82011682018060405250810190620014bd919062001ddd565b506040516323b872dd60e01b81526001600160a01b038516906323b872dd90620014f09030903390869060040162001c52565b600060405180830381600087803b1580156200150b57600080fd5b505af115801562001520573d6000803e3d6000fd5b50505060008481526008602052604090819020600480820180546001600160a01b031916339081179091556006928301805460ff19166001179055600754925493516323b872dd60e01b81526001600160a01b039390931694506323b872dd936200159093919230920162001c52565b6020604051808303816000875af1158015620015b0573d6000803e3d6000fd5b505050506040513d601f19601f82011682018060405250810190620015d6919062001ddd565b50604080513381526020810184905282916001600160a01b0387169186917f9789d8d6748e7f3e6c12fe6b244e2765b7e805f6b4b65a2474cad0ca8e788408910160405180910390a460028054906000620016318362001c00565b91905055505050620016436001600055565b5050565b6002600054036200166b57604051633ee5aeb560e01b815260040160405180910390fd5b6002600055565b61186c8062001f1d83390190565b6040518060e00160405280600081526020016060815260200160006001600160a01b0316815260200160006001600160a01b031681526020016000815260200160608152602001606081525090565b602080825282518282018190526000919060409081850190868401855b828110156200175857815180518552868101516001600160a01b039081168887015286820151878701526060808301518216908701526080808301519091169086015260a0808201519086015260c09081015115159085015260e09093019290850190600101620016ec565b5091979650505050505050565b60005b838110156200178257818101518382015260200162001768565b50506000910152565b60008151808452620017a581602086016020860162001765565b601f01601f19169290920160200192915050565b600060208083018184528085518083526040925060408601915060408160051b87010184880160005b838110156200184857603f19898403018552815160808151855288820151818a87015262001813828701826200178b565b838a01516001600160a01b03908116888c015260609485015116939096019290925250509386019390860190600101620017e2565b509098975050505050505050565b80356001600160a01b03811681146200186e57600080fd5b919050565b600080600080608085870312156200188a57600080fd5b620018958562001856565b93506020850135925060408501359150620018b36060860162001856565b905092959194509250565b600080600060608486031215620018d457600080fd5b620018df8462001856565b95602085013595506040909401359392505050565b634e487b7160e01b600052604160045260246000fd5b600082601f8301126200191c57600080fd5b813567ffffffffffffffff808211156200193a576200193a620018f4565b604051601f8301601f19908116603f01168101908282118183101715620019655762001965620018f4565b816040528381528660208588010111156200197f57600080fd5b836020870160208301376000602085830101528094505050505092915050565b600080600080600060a08688031215620019b857600080fd5b620019c38662001856565b9450602086013567ffffffffffffffff80821115620019e157600080fd5b620019ef89838a016200190a565b9550604088013591508082111562001a0657600080fd5b62001a1489838a016200190a565b945060608801359350608088013591508082111562001a3257600080fd5b5062001a41888289016200190a565b9150509295509295909350565b60006020828403121562001a6157600080fd5b813567ffffffffffffffff81111562001a7957600080fd5b62001a87848285016200190a565b949350505050565b60006020828403121562001aa257600080fd5b62001aad8262001856565b9392505050565b600060208083018184528085518083526040925060408601915060408160051b87010184880160005b838110156200184857603f19898403018552815160e08151855288820151818a87015262001b0e828701826200178b565b838a01516001600160a01b03908116888c0152606080860151909116908801526080808501519088015260a08085015188830389830152919350915062001b5683826200178b565b9250505060c0808301519250858203818701525062001b7681836200178b565b96890196945050509086019060010162001add565b6000806040838503121562001b9f57600080fd5b62001baa8362001856565b946020939093013593505050565b634e487b7160e01b600052601160045260246000fd5b8181038181111562001be45762001be462001bb8565b92915050565b634e487b7160e01b600052603260045260246000fd5b60006001820162001c155762001c1562001bb8565b5060010190565b600181811c9082168062001c3157607f821691505b602082108103620005b457634e487b7160e01b600052602260045260246000fd5b6001600160a01b039384168152919092166020820152604081019190915260600190565b60408152600062001c8b60408301856200178b565b905060018060a01b03831660208301529392505050565b60006020828403121562001cb557600080fd5b5051919050565b601f82111562000967576000816000526020600020601f850160051c8101602086101562001ce75750805b601f850160051c820191505b8181101562001d085782815560010162001cf3565b505050505050565b815167ffffffffffffffff81111562001d2d5762001d2d620018f4565b62001d458162001d3e845462001c1c565b8462001cbc565b602080601f83116001811462001d7d576000841562001d645750858301515b600019600386901b1c1916600185901b17855562001d08565b600085815260208120601f198616915b8281101562001dae5788860151825594840194600190910190840162001d8d565b508582101562001dcd5787850151600019600388901b60f8161c191681555b5050505050600190811b01905550565b60006020828403121562001df057600080fd5b8151801515811462001aad57600080fd5b60808152600062001e1660808301876200178b565b6001600160a01b038616602084015260408301859052828103606084015262001e4081856200178b565b979650505050505050565b60608152600062001e6060608301866200178b565b6001600160a01b0394851660208401529290931660409091015292915050565b600080835462001e908162001c1c565b6001828116801562001eab576001811462001ec15762001ef2565b60ff198416875282151583028701945062001ef2565b8760005260208060002060005b8581101562001ee95781548a82015290840190820162001ece565b50505082870194505b50929695505050505050565b6000825162001f1281846020870162001765565b919091019291505056fe60806040523480156200001157600080fd5b506040516200186c3803806200186c8339810160408190526200003491620000d1565b828060006200004482826200025c565b5060016200005382826200025c565b5050600980546001600160a01b038086166001600160a01b031992831617909255600a80549285169290911691909117905550600b6200009484826200025c565b5050505062000328565b634e487b7160e01b600052604160045260246000fd5b80516001600160a01b0381168114620000cc57600080fd5b919050565b600080600060608486031215620000e757600080fd5b83516001600160401b0380821115620000ff57600080fd5b818601915086601f8301126200011457600080fd5b8151818111156200012957620001296200009e565b604051601f8201601f19908116603f011681019083821181831017156200015457620001546200009e565b816040528281526020935089848487010111156200017157600080fd5b600091505b8282101562000195578482018401518183018501529083019062000176565b6000848483010152809750505050620001b0818701620000b4565b93505050620001c260408501620000b4565b90509250925092565b600181811c90821680620001e057607f821691505b6020821081036200020157634e487b7160e01b600052602260045260246000fd5b50919050565b601f82111562000257576000816000526020600020601f850160051c81016020861015620002325750805b601f850160051c820191505b8181101562000253578281556001016200023e565b5050505b505050565b81516001600160401b038111156200027857620002786200009e565b6200029081620002898454620001cb565b8462000207565b602080601f831160018114620002c85760008415620002af5750858301515b600019600386901b1c1916600185901b17855562000253565b600085815260208120601f198616915b82811015620002f957888601518255948401946001909101908401620002d8565b5085821015620003185787850151600019600388901b60f8161c191681555b5050505050600190811b01905550565b61153480620003386000396000f3fe608060405234801561001057600080fd5b50600436106101165760003560e01c806370a08231116100a2578063a211937711610071578063a21193771461022c578063a22cb4651461023f578063b88d4fde14610252578063c87b56dd14610265578063e985e9c51461027857600080fd5b806370a08231146101eb57806374aa554e146101fe5780638dd586df1461021157806395d89b411461022457600080fd5b8063095ea7b3116100e9578063095ea7b31461019557806317d7de7c146101aa57806323b872dd146101b257806342842e0e146101c55780636352211e146101d857600080fd5b806301ffc9a71461011b57806306e8337f1461014357806306fdde0314610155578063081812fc1461016a575b600080fd5b61012e610129366004610ead565b61028b565b60405190151581526020015b60405180910390f35b6007545b60405190815260200161013a565b61015d6102b6565b60405161013a9190610f1a565b61017d610178366004610f2d565b610348565b6040516001600160a01b03909116815260200161013a565b6101a86101a3366004610f62565b610371565b005b61015d610380565b6101a86101c0366004610f8c565b61038f565b6101a86101d3366004610f8c565b61041f565b61017d6101e6366004610f2d565b61043f565b6101476101f9366004610fc8565b61044a565b6101a861020c3660046110a2565b610492565b6101a861021f366004611177565b6104ca565b61015d61052e565b61014761023a3660046111be565b61053d565b6101a861024d36600461120c565b61057a565b6101a8610260366004611248565b610585565b61015d610273366004610f2d565b61059c565b61012e6102863660046112c4565b6106ad565b60006001600160e01b03198216632483248360e11b14806102b057506102b0826106db565b92915050565b6060600080546102c5906112ee565b80601f01602080910402602001604051908101604052809291908181526020018280546102f1906112ee565b801561033e5780601f106103135761010080835404028352916020019161033e565b820191906000526020600020905b81548152906001019060200180831161032157829003601f168201915b5050505050905090565b60006103538261072b565b506000828152600460205260409020546001600160a01b03166102b0565b61037c828233610764565b5050565b6060600b80546102c5906112ee565b6001600160a01b0382166103be57604051633250574960e11b8152600060048201526024015b60405180910390fd5b60006103cb838333610771565b9050836001600160a01b0316816001600160a01b031614610419576040516364283d7b60e01b81526001600160a01b03808616600483015260248201849052821660448201526064016103b5565b50505050565b61043a83838360405180602001604052806000815250610585565b505050565b60006102b08261072b565b60006001600160a01b038216610476576040516322718ad960e21b8152600060048201526024016103b5565b506001600160a01b031660009081526003602052604090205490565b60005b825181101561043a576104c18382815181106104b3576104b3611328565b60200260200101518361053d565b50600101610495565b6009546001600160a01b031633146105245760405162461bcd60e51b815260206004820152601860248201527f756e74727573746564206d6573736167652073656e646572000000000000000060448201526064016103b5565b61037c828261086a565b6060600180546102c5906112ee565b60075461054a82826108ba565b610554818461086a565b61055f33600161057a565b6007805490600061056f8361133e565b919050555092915050565b61037c33838361091f565b61059084848461038f565b610419848484846109be565b60606105a78261072b565b50600082815260066020526040812080546105c1906112ee565b80601f01602080910402602001604051908101604052809291908181526020018280546105ed906112ee565b801561063a5780601f1061060f5761010080835404028352916020019161063a565b820191906000526020600020905b81548152906001019060200180831161061d57829003601f168201915b50505050509050600061065860408051602081019091526000815290565b9050805160000361066a575092915050565b81511561069c578082604051602001610684929190611365565b60405160208183030381529060405292505050919050565b6106a584610ae7565b949350505050565b6001600160a01b03918216600090815260056020908152604080832093909416825291909152205460ff1690565b60006001600160e01b031982166380ac58cd60e01b148061070c57506001600160e01b03198216635b5e139f60e01b145b806102b057506301ffc9a760e01b6001600160e01b03198316146102b0565b6000818152600260205260408120546001600160a01b0316806102b057604051637e27328960e01b8152600481018490526024016103b5565b61043a8383836001610b5c565b6000828152600260205260408120546001600160a01b039081169083161561079e5761079e818486610c62565b6001600160a01b038116156107dc576107bb600085600080610b5c565b6001600160a01b038116600090815260036020526040902080546000190190555b6001600160a01b0385161561080b576001600160a01b0385166000908152600360205260409020805460010190555b60008481526002602052604080822080546001600160a01b0319166001600160a01b0389811691821790925591518793918516917fddf252ad1be2c89b69c2b068fc378daa952ba7f163c4a11628f55a4df523b3ef91a4949350505050565b600082815260066020526040902061088282826113e4565b506040518281527ff8e1a15aba9398e019f0b49df1a4fde98ee17ae345cb5f6b5e2c27f5033e8ce79060200160405180910390a15050565b6001600160a01b0382166108e457604051633250574960e11b8152600060048201526024016103b5565b60006108f283836000610771565b90506001600160a01b0381161561043a576040516339e3563760e11b8152600060048201526024016103b5565b6001600160a01b03821661095157604051630b61174360e31b81526001600160a01b03831660048201526024016103b5565b6001600160a01b03838116600081815260056020908152604080832094871680845294825291829020805460ff191686151590811790915591519182527f17307eab39ab6107e8899845ad3d59bd9653f200f220920489ca2b5937696c31910160405180910390a3505050565b6001600160a01b0383163b1561041957604051630a85bd0160e11b81526001600160a01b0384169063150b7a0290610a009033908890879087906004016114a4565b6020604051808303816000875af1925050508015610a3b575060408051601f3d908101601f19168201909252610a38918101906114e1565b60015b610aa4573d808015610a69576040519150601f19603f3d011682016040523d82523d6000602084013e610a6e565b606091505b508051600003610a9c57604051633250574960e11b81526001600160a01b03851660048201526024016103b5565b805181602001fd5b6001600160e01b03198116630a85bd0160e11b14610ae057604051633250574960e11b81526001600160a01b03851660048201526024016103b5565b5050505050565b6060610af28261072b565b506000610b0a60408051602081019091526000815290565b90506000815111610b2a5760405180602001604052806000815250610b55565b80610b3484610cc6565b604051602001610b45929190611365565b6040516020818303038152906040525b9392505050565b8080610b7057506001600160a01b03821615155b15610c32576000610b808461072b565b90506001600160a01b03831615801590610bac5750826001600160a01b0316816001600160a01b031614155b8015610bbf5750610bbd81846106ad565b155b15610be85760405163a9fbf51f60e01b81526001600160a01b03841660048201526024016103b5565b8115610c305783856001600160a01b0316826001600160a01b03167f8c5be1e5ebec7d5bd14f71427d1e84f3dd0314c0f7b2291e5b200ac8c7c3b92560405160405180910390a45b505b5050600090815260046020526040902080546001600160a01b0319166001600160a01b0392909216919091179055565b610c6d838383610d59565b61043a576001600160a01b038316610c9b57604051637e27328960e01b8152600481018290526024016103b5565b60405163177e802f60e01b81526001600160a01b0383166004820152602481018290526044016103b5565b60606000610cd383610dbc565b600101905060008167ffffffffffffffff811115610cf357610cf3610fe3565b6040519080825280601f01601f191660200182016040528015610d1d576020820181803683370190505b5090508181016020015b600019016f181899199a1a9b1b9c1cb0b131b232b360811b600a86061a8153600a8504945084610d2757509392505050565b60006001600160a01b038316158015906106a55750826001600160a01b0316846001600160a01b03161480610d935750610d9384846106ad565b806106a55750506000908152600460205260409020546001600160a01b03908116911614919050565b60008072184f03e93ff9f4daa797ed6e38ed64bf6a1f0160401b8310610dfb5772184f03e93ff9f4daa797ed6e38ed64bf6a1f0160401b830492506040015b6d04ee2d6d415b85acef81000000008310610e27576d04ee2d6d415b85acef8100000000830492506020015b662386f26fc100008310610e4557662386f26fc10000830492506010015b6305f5e1008310610e5d576305f5e100830492506008015b6127108310610e7157612710830492506004015b60648310610e83576064830492506002015b600a83106102b05760010192915050565b6001600160e01b031981168114610eaa57600080fd5b50565b600060208284031215610ebf57600080fd5b8135610b5581610e94565b60005b83811015610ee5578181015183820152602001610ecd565b50506000910152565b60008151808452610f06816020860160208601610eca565b601f01601f19169290920160200192915050565b602081526000610b556020830184610eee565b600060208284031215610f3f57600080fd5b5035919050565b80356001600160a01b0381168114610f5d57600080fd5b919050565b60008060408385031215610f7557600080fd5b610f7e83610f46565b946020939093013593505050565b600080600060608486031215610fa157600080fd5b610faa84610f46565b9250610fb860208501610f46565b9150604084013590509250925092565b600060208284031215610fda57600080fd5b610b5582610f46565b634e487b7160e01b600052604160045260246000fd5b604051601f8201601f1916810167ffffffffffffffff8111828210171561102257611022610fe3565b604052919050565b600067ffffffffffffffff83111561104457611044610fe3565b611057601f8401601f1916602001610ff9565b905082815283838301111561106b57600080fd5b828260208301376000602084830101529392505050565b600082601f83011261109357600080fd5b610b558383356020850161102a565b600080604083850312156110b557600080fd5b823567ffffffffffffffff808211156110cd57600080fd5b818501915085601f8301126110e157600080fd5b81356020828211156110f5576110f5610fe3565b8160051b611104828201610ff9565b928352848101820192828101908a85111561111e57600080fd5b83870192505b8483101561115a5782358681111561113c5760008081fd5b61114a8c86838b0101611082565b8352509183019190830190611124565b975061116a915050878201610f46565b9450505050509250929050565b6000806040838503121561118a57600080fd5b82359150602083013567ffffffffffffffff8111156111a857600080fd5b6111b485828601611082565b9150509250929050565b600080604083850312156111d157600080fd5b823567ffffffffffffffff8111156111e857600080fd5b6111f485828601611082565b92505061120360208401610f46565b90509250929050565b6000806040838503121561121f57600080fd5b61122883610f46565b91506020830135801515811461123d57600080fd5b809150509250929050565b6000806000806080858703121561125e57600080fd5b61126785610f46565b935061127560208601610f46565b925060408501359150606085013567ffffffffffffffff81111561129857600080fd5b8501601f810187136112a957600080fd5b6112b88782356020840161102a565b91505092959194509250565b600080604083850312156112d757600080fd5b6112e083610f46565b915061120360208401610f46565b600181811c9082168061130257607f821691505b60208210810361132257634e487b7160e01b600052602260045260246000fd5b50919050565b634e487b7160e01b600052603260045260246000fd5b60006001820161135e57634e487b7160e01b600052601160045260246000fd5b5060010190565b60008351611377818460208801610eca565b83519083019061138b818360208801610eca565b01949350505050565b601f82111561043a576000816000526020600020601f850160051c810160208610156113bd5750805b601f850160051c820191505b818110156113dc578281556001016113c9565b505050505050565b815167ffffffffffffffff8111156113fe576113fe610fe3565b6114128161140c84546112ee565b84611394565b602080601f831160018114611447576000841561142f5750858301515b600019600386901b1c1916600185901b1785556113dc565b600085815260208120601f198616915b8281101561147657888601518255948401946001909101908401611457565b50858210156114945787850151600019600388901b60f8161c191681555b5050505050600190811b01905550565b6001600160a01b03858116825284166020820152604081018390526080606082018190526000906114d790830184610eee565b9695505050505050565b6000602082840312156114f357600080fd5b8151610b5581610e9456fea2646970667358221220dce8e92b57047fff45280e00cbac27c002cb9c037d8122c6027246206e902bc764736f6c63430008180033a2646970667358221220cfc22a4e7a8fbe9273fc4d9d18a09f5c9988632772c82761fc1c17819434e81c64736f6c63430008180033",
  "linkReferences": {},
  "deployedLinkReferences": {}
}