{
  "_format": "hh-sol-artifact-1",
  "contractName": "CinemaInfo",
  "sourceName": "contracts/CinemaInfo.sol",
  "abi": [
    {
      "inputs": [],
      "stateMutability": "nonpayable",
      "type": "constructor"
    },
    {
      "anonymous": false,
      "inputs": [
        {
          "indexed": true,
          "internalType": "uint256",
          "name": "id",
          "type": "uint256"
        },
        {
          "indexed": false,
          "internalType": "string",
          "name": "itemID",
          "type": "string"
        },
        {
          "indexed": false,
          "internalType": "string",
          "name": "uri",
          "type": "string"
        }
      ],
      "name": "ActorCreated",
      "type": "event"
    },
    {
      "anonymous": false,
      "inputs": [
        {
          "indexed": true,
          "internalType": "uint256",
          "name": "id",
          "type": "uint256"
        },
        {
          "indexed": false,
          "internalType": "string",
          "name": "itemID",
          "type": "string"
        },
        {
          "indexed": false,
          "internalType": "string",
          "name": "name",
          "type": "string"
        },
        {
          "indexed": false,
          "internalType": "string",
          "name": "uri",
          "type": "string"
        }
      ],
      "name": "CinemaCreated",
      "type": "event"
    },
    {
      "anonymous": false,
      "inputs": [
        {
          "indexed": true,
          "internalType": "uint256",
          "name": "id",
          "type": "uint256"
        },
        {
          "indexed": false,
          "internalType": "string",
          "name": "itemID",
          "type": "string"
        },
        {
          "indexed": false,
          "internalType": "string",
          "name": "title",
          "type": "string"
        },
        {
          "indexed": false,
          "internalType": "string",
          "name": "uri",
          "type": "string"
        }
      ],
      "name": "FilmCreated",
      "type": "event"
    },
    {
      "anonymous": false,
      "inputs": [
        {
          "indexed": true,
          "internalType": "uint256",
          "name": "id",
          "type": "uint256"
        },
        {
          "indexed": false,
          "internalType": "string",
          "name": "itemID",
          "type": "string"
        },
        {
          "indexed": false,
          "internalType": "string",
          "name": "cinemaID",
          "type": "string"
        },
        {
          "indexed": false,
          "internalType": "string",
          "name": "uri",
          "type": "string"
        }
      ],
      "name": "PlaceCreated",
      "type": "event"
    },
    {
      "anonymous": false,
      "inputs": [
        {
          "indexed": true,
          "internalType": "uint256",
          "name": "id",
          "type": "uint256"
        },
        {
          "indexed": false,
          "internalType": "string",
          "name": "itemID",
          "type": "string"
        },
        {
          "indexed": false,
          "internalType": "string",
          "name": "placeID",
          "type": "string"
        },
        {
          "indexed": false,
          "internalType": "string",
          "name": "uri",
          "type": "string"
        }
      ],
      "name": "ScreenCreated",
      "type": "event"
    },
    {
      "inputs": [
        {
          "internalType": "string",
          "name": "actorId",
          "type": "string"
        },
        {
          "internalType": "string",
          "name": "uri",
          "type": "string"
        }
      ],
      "name": "addActor",
      "outputs": [],
      "stateMutability": "nonpayable",
      "type": "function"
    },
    {
      "inputs": [
        {
          "internalType": "string",
          "name": "cinemaId",
          "type": "string"
        },
        {
          "internalType": "string",
          "name": "name",
          "type": "string"
        },
        {
          "internalType": "string",
          "name": "uri",
          "type": "string"
        }
      ],
      "name": "addCinema",
      "outputs": [],
      "stateMutability": "nonpayable",
      "type": "function"
    },
    {
      "inputs": [
        {
          "internalType": "string",
          "name": "filmId",
          "type": "string"
        },
        {
          "internalType": "string",
          "name": "title",
          "type": "string"
        },
        {
          "internalType": "string",
          "name": "uri",
          "type": "string"
        }
      ],
      "name": "addFilm",
      "outputs": [],
      "stateMutability": "nonpayable",
      "type": "function"
    },
    {
      "inputs": [
        {
          "internalType": "string",
          "name": "placeId",
          "type": "string"
        },
        {
          "internalType": "string",
          "name": "cinemaId",
          "type": "string"
        },
        {
          "internalType": "string",
          "name": "uri",
          "type": "string"
        }
      ],
      "name": "addPlace",
      "outputs": [],
      "stateMutability": "nonpayable",
      "type": "function"
    },
    {
      "inputs": [
        {
          "internalType": "string",
          "name": "screenId",
          "type": "string"
        },
        {
          "internalType": "string",
          "name": "placeId",
          "type": "string"
        },
        {
          "internalType": "string",
          "name": "uri",
          "type": "string"
        }
      ],
      "name": "addScreen",
      "outputs": [],
      "stateMutability": "nonpayable",
      "type": "function"
    },
    {
      "inputs": [
        {
          "internalType": "string",
          "name": "actorId",
          "type": "string"
        }
      ],
      "name": "getActor",
      "outputs": [
        {
          "components": [
            {
              "internalType": "string",
              "name": "itemID",
              "type": "string"
            },
            {
              "internalType": "string",
              "name": "uri",
              "type": "string"
            }
          ],
          "internalType": "struct CinemaInfo.ActorItem",
          "name": "",
          "type": "tuple"
        }
      ],
      "stateMutability": "view",
      "type": "function"
    },
    {
      "inputs": [],
      "name": "getAllActors",
      "outputs": [
        {
          "components": [
            {
              "internalType": "string",
              "name": "itemID",
              "type": "string"
            },
            {
              "internalType": "string",
              "name": "uri",
              "type": "string"
            }
          ],
          "internalType": "struct CinemaInfo.ActorItem[]",
          "name": "",
          "type": "tuple[]"
        }
      ],
      "stateMutability": "view",
      "type": "function"
    },
    {
      "inputs": [],
      "name": "getAllCinemas",
      "outputs": [
        {
          "components": [
            {
              "internalType": "string",
              "name": "itemID",
              "type": "string"
            },
            {
              "internalType": "string",
              "name": "name",
              "type": "string"
            },
            {
              "internalType": "string",
              "name": "uri",
              "type": "string"
            },
            {
              "internalType": "address",
              "name": "cinemaAddress",
              "type": "address"
            }
          ],
          "internalType": "struct CinemaInfo.CinemaItem[]",
          "name": "",
          "type": "tuple[]"
        }
      ],
      "stateMutability": "view",
      "type": "function"
    },
    {
      "inputs": [],
      "name": "getAllFilms",
      "outputs": [
        {
          "components": [
            {
              "internalType": "string",
              "name": "itemID",
              "type": "string"
            },
            {
              "internalType": "string",
              "name": "uri",
              "type": "string"
            },
            {
              "internalType": "string",
              "name": "title",
              "type": "string"
            }
          ],
          "internalType": "struct CinemaInfo.FilmItem[]",
          "name": "",
          "type": "tuple[]"
        }
      ],
      "stateMutability": "view",
      "type": "function"
    },
    {
      "inputs": [],
      "name": "getAllPlaces",
      "outputs": [
        {
          "components": [
            {
              "internalType": "string",
              "name": "itemID",
              "type": "string"
            },
            {
              "internalType": "string",
              "name": "uri",
              "type": "string"
            },
            {
              "internalType": "string",
              "name": "cinemaId",
              "type": "string"
            }
          ],
          "internalType": "struct CinemaInfo.PlaceItem[]",
          "name": "",
          "type": "tuple[]"
        }
      ],
      "stateMutability": "view",
      "type": "function"
    },
    {
      "inputs": [
        {
          "internalType": "string",
          "name": "cinemaId",
          "type": "string"
        }
      ],
      "name": "getAllPlacesByCinema",
      "outputs": [
        {
          "components": [
            {
              "internalType": "string",
              "name": "itemID",
              "type": "string"
            },
            {
              "internalType": "string",
              "name": "uri",
              "type": "string"
            },
            {
              "internalType": "string",
              "name": "cinemaId",
              "type": "string"
            }
          ],
          "internalType": "struct CinemaInfo.PlaceItem[]",
          "name": "",
          "type": "tuple[]"
        }
      ],
      "stateMutability": "view",
      "type": "function"
    },
    {
      "inputs": [],
      "name": "getAllScreens",
      "outputs": [
        {
          "components": [
            {
              "internalType": "string",
              "name": "itemID",
              "type": "string"
            },
            {
              "internalType": "string",
              "name": "uri",
              "type": "string"
            },
            {
              "internalType": "string",
              "name": "placeId",
              "type": "string"
            }
          ],
          "internalType": "struct CinemaInfo.ScreenItem[]",
          "name": "",
          "type": "tuple[]"
        }
      ],
      "stateMutability": "view",
      "type": "function"
    },
    {
      "inputs": [
        {
          "internalType": "string",
          "name": "placeId",
          "type": "string"
        }
      ],
      "name": "getAllScreensByPlace",
      "outputs": [
        {
          "components": [
            {
              "internalType": "string",
              "name": "itemID",
              "type": "string"
            },
            {
              "internalType": "string",
              "name": "uri",
              "type": "string"
            },
            {
              "internalType": "string",
              "name": "placeId",
              "type": "string"
            }
          ],
          "internalType": "struct CinemaInfo.ScreenItem[]",
          "name": "",
          "type": "tuple[]"
        }
      ],
      "stateMutability": "view",
      "type": "function"
    },
    {
      "inputs": [
        {
          "internalType": "string",
          "name": "cinemaId",
          "type": "string"
        }
      ],
      "name": "getCinema",
      "outputs": [
        {
          "components": [
            {
              "internalType": "string",
              "name": "itemID",
              "type": "string"
            },
            {
              "internalType": "string",
              "name": "name",
              "type": "string"
            },
            {
              "internalType": "string",
              "name": "uri",
              "type": "string"
            },
            {
              "internalType": "address",
              "name": "cinemaAddress",
              "type": "address"
            }
          ],
          "internalType": "struct CinemaInfo.CinemaItem",
          "name": "",
          "type": "tuple"
        }
      ],
      "stateMutability": "view",
      "type": "function"
    },
    {
      "inputs": [
        {
          "internalType": "string",
          "name": "filmId",
          "type": "string"
        }
      ],
      "name": "getFilm",
      "outputs": [
        {
          "components": [
            {
              "internalType": "string",
              "name": "itemID",
              "type": "string"
            },
            {
              "internalType": "string",
              "name": "uri",
              "type": "string"
            },
            {
              "internalType": "string",
              "name": "title",
              "type": "string"
            }
          ],
          "internalType": "struct CinemaInfo.FilmItem",
          "name": "",
          "type": "tuple"
        }
      ],
      "stateMutability": "view",
      "type": "function"
    },
    {
      "inputs": [
        {
          "internalType": "string",
          "name": "placeId",
          "type": "string"
        }
      ],
      "name": "getPlace",
      "outputs": [
        {
          "components": [
            {
              "internalType": "string",
              "name": "itemID",
              "type": "string"
            },
            {
              "internalType": "string",
              "name": "uri",
              "type": "string"
            },
            {
              "internalType": "string",
              "name": "cinemaId",
              "type": "string"
            }
          ],
          "internalType": "struct CinemaInfo.PlaceItem",
          "name": "",
          "type": "tuple"
        }
      ],
      "stateMutability": "view",
      "type": "function"
    },
    {
      "inputs": [
        {
          "internalType": "string",
          "name": "screenId",
          "type": "string"
        }
      ],
      "name": "getScreen",
      "outputs": [
        {
          "components": [
            {
              "internalType": "string",
              "name": "itemID",
              "type": "string"
            },
            {
              "internalType": "string",
              "name": "uri",
              "type": "string"
            },
            {
              "internalType": "string",
              "name": "placeId",
              "type": "string"
            }
          ],
          "internalType": "struct CinemaInfo.ScreenItem",
          "name": "",
          "type": "tuple"
        }
      ],
      "stateMutability": "view",
      "type": "function"
    },
    {
      "inputs": [
        {
          "internalType": "address",
          "name": "market",
          "type": "address"
        }
      ],
      "name": "setMarket",
      "outputs": [],
      "stateMutability": "nonpayable",
      "type": "function"
    },
    {
      "inputs": [],
      "name": "totalNumberOfActors",
      "outputs": [
        {
          "internalType": "uint256",
          "name": "",
          "type": "uint256"
        }
      ],
      "stateMutability": "view",
      "type": "function"
    },
    {
      "inputs": [],
      "name": "totalNumberOfCinemas",
      "outputs": [
        {
          "internalType": "uint256",
          "name": "",
          "type": "uint256"
        }
      ],
      "stateMutability": "view",
      "type": "function"
    },
    {
      "inputs": [],
      "name": "totalNumberOfFilms",
      "outputs": [
        {
          "internalType": "uint256",
          "name": "",
          "type": "uint256"
        }
      ],
      "stateMutability": "view",
      "type": "function"
    },
    {
      "inputs": [],
      "name": "totalNumberOfPlaces",
      "outputs": [
        {
          "internalType": "uint256",
          "name": "",
          "type": "uint256"
        }
      ],
      "stateMutability": "view",
      "type": "function"
    },
    {
      "inputs": [],
      "name": "totalNumberOfScreens",
      "outputs": [
        {
          "internalType": "uint256",
          "name": "",
          "type": "uint256"
        }
      ],
      "stateMutability": "view",
      "type": "function"
    },
    {
      "inputs": [
        {
          "internalType": "string",
          "name": "actorId",
          "type": "string"
        },
        {
          "internalType": "string",
          "name": "uri",
          "type": "string"
        }
      ],
      "name": "updateActorUri",
      "outputs": [],
      "stateMutability": "nonpayable",
      "type": "function"
    },
    {
      "inputs": [
        {
          "internalType": "string",
          "name": "cinemaId",
          "type": "string"
        },
        {
          "internalType": "string",
          "name": "uri",
          "type": "string"
        }
      ],
      "name": "updateCinemaUri",
      "outputs": [],
      "stateMutability": "nonpayable",
      "type": "function"
    },
    {
      "inputs": [
        {
          "internalType": "string",
          "name": "filmId",
          "type": "string"
        },
        {
          "internalType": "string",
          "name": "uri",
          "type": "string"
        }
      ],
      "name": "updateFilmUri",
      "outputs": [],
      "stateMutability": "nonpayable",
      "type": "function"
    },
    {
      "inputs": [
        {
          "internalType": "string",
          "name": "placeId",
          "type": "string"
        },
        {
          "internalType": "string",
          "name": "uri",
          "type": "string"
        }
      ],
      "name": "updatePlaceUri",
      "outputs": [],
      "stateMutability": "nonpayable",
      "type": "function"
    },
    {
      "inputs": [
        {
          "internalType": "string",
          "name": "screenId",
          "type": "string"
        },
        {
          "internalType": "string",
          "name": "uri",
          "type": "string"
        }
      ],
      "name": "updateScreenUri",
      "outputs": [],
      "stateMutability": "nonpayable",
      "type": "function"
    }
  ],
  "bytecode": "0x608060405234801561001057600080fd5b50600b80546001600160a01b03191633179055613272806100326000396000f3fe608060405234801561001057600080fd5b50600436106101c45760003560e01c8063a84eb754116100f9578063da35fa7d11610097578063ef97c24e11610071578063ef97c24e146103a7578063f1096a72146103ba578063f397ba84146103cd578063f450b5a3146103e057600080fd5b8063da35fa7d1461036c578063dccd9f0614610381578063e0153e9f1461039457600080fd5b8063c367ed29116100d3578063c367ed2914610336578063c3b18b0b14610349578063c539aa1114610351578063cee15b2c1461035957600080fd5b8063a84eb754146102ee578063ae3ba65b1461030e578063af865aea1461032357600080fd5b80635cd739a3116101665780637b8719e8116101405780637b8719e8146102a057806387ba3e26146102b35780639332071b146102d3578063a411fe05146102db57600080fd5b80635cd739a3146102655780636dcea85f146102785780636faa04691461028b57600080fd5b80631cf2339c116101a25780631cf2339c1461020a5780631d010ed51461022a578063362839e41461023f5780633a4755d11461025257600080fd5b806302516249146101c95780630d28dd79146101de578063133fd549146101f5575b600080fd5b6101dc6101d7366004612b23565b6103e8565b005b6008545b6040519081526020015b60405180910390f35b6101fd6104d1565b6040516101ec9190612c28565b61021d610218366004612c8c565b61077d565b6040516101ec9190612d30565b610232610a59565b6040516101ec9190612d78565b6101fd61024d366004612c8c565b610c5d565b6101dc610260366004612b23565b610f9a565b6101dc610273366004612b23565b611079565b6101dc610286366004612de7565b611139565b6102936111b5565b6040516101ec9190612e04565b6101dc6102ae366004612b23565b61145b565b6102c66102c1366004612c8c565b611519565b6040516101ec9190612e5b565b600a546101e2565b6101dc6102e9366004612b23565b6117d0565b6103016102fc366004612c8c565b61188f565b6040516101ec9190612e6e565b610316611a1b565b6040516101ec9190612e81565b6102c6610331366004612c8c565b611ce8565b6101dc610344366004612ed8565b611dc8565b6009546101e2565b6007546101e2565b6102c6610367366004612c8c565b611f2c565b61037461200e565b6040516101ec9190612f60565b61037461038f366004612c8c565b6122b4565b6101dc6103a2366004612ed8565b6125ea565b6101dc6103b5366004612ed8565b6126ab565b6101dc6103c8366004612ed8565b612837565b6101dc6103db366004612b23565b6129c3565b6006546101e2565b816040516020016103f99190612fb7565b6040516020818303038152906040528051906020012060038360405161041f9190612fb7565b9081526040516020918190038201812061043b92909101613007565b604051602081830303815290604052805190602001201461049a5760405162461bcd60e51b8152602060048201526014602482015273141b1858d948191bd95cc81b9bdd08195e1a5cdd60621b60448201526064015b60405180910390fd5b60006003836040516104ac9190612fb7565b9081526040519081900360200190209050600181016104cb83826130ce565b50505050565b60085460609060009067ffffffffffffffff8111156104f2576104f2612a80565b60405190808252806020026020018201604052801561054757816020015b61053460405180606001604052806060815260200160608152602001606081525090565b8152602001906001900390816105105790505b50905060005b6008548110156107775760036008828154811061056c5761056c61318e565b906000526020600020016040516105839190613007565b90815260200160405180910390206040518060600160405290816000820180546105ac90612fd3565b80601f01602080910402602001604051908101604052809291908181526020018280546105d890612fd3565b80156106255780601f106105fa57610100808354040283529160200191610625565b820191906000526020600020905b81548152906001019060200180831161060857829003601f168201915b5050505050815260200160018201805461063e90612fd3565b80601f016020809104026020016040519081016040528092919081815260200182805461066a90612fd3565b80156106b75780601f1061068c576101008083540402835291602001916106b7565b820191906000526020600020905b81548152906001019060200180831161069a57829003601f168201915b505050505081526020016002820180546106d090612fd3565b80601f01602080910402602001604051908101604052809291908181526020018280546106fc90612fd3565b80156107495780601f1061071e57610100808354040283529160200191610749565b820191906000526020600020905b81548152906001019060200180831161072c57829003601f168201915b5050505050815250508282815181106107645761076461318e565b602090810291909101015260010161054d565b50919050565b6107b1604051806080016040528060608152602001606081526020016060815260200160006001600160a01b031681525090565b816040516020016107c29190612fb7565b604051602081830303815290604052805190602001206001836040516107e89190612fb7565b9081526040516020918190038201812061080492909101613007565b604051602081830303815290604052805190602001201461085f5760405162461bcd60e51b815260206004820152601560248201527410da5b995b5848191bd95cc81b9bdd08195e1a5cdd605a1b6044820152606401610491565b60018260405161086f9190612fb7565b908152602001604051809103902060405180608001604052908160008201805461089890612fd3565b80601f01602080910402602001604051908101604052809291908181526020018280546108c490612fd3565b80156109115780601f106108e657610100808354040283529160200191610911565b820191906000526020600020905b8154815290600101906020018083116108f457829003601f168201915b5050505050815260200160018201805461092a90612fd3565b80601f016020809104026020016040519081016040528092919081815260200182805461095690612fd3565b80156109a35780601f10610978576101008083540402835291602001916109a3565b820191906000526020600020905b81548152906001019060200180831161098657829003601f168201915b505050505081526020016002820180546109bc90612fd3565b80601f01602080910402602001604051908101604052809291908181526020018280546109e890612fd3565b8015610a355780601f10610a0a57610100808354040283529160200191610a35565b820191906000526020600020905b815481529060010190602001808311610a1857829003601f168201915b5050509183525050600391909101546001600160a01b031660209091015292915050565b600a5460609060009067ffffffffffffffff811115610a7a57610a7a612a80565b604051908082528060200260200182016040528015610abf57816020015b6040805180820190915260608082526020820152815260200190600190039081610a985790505b50905060005b600a54811015610777576005600a8281548110610ae457610ae461318e565b90600052602060002001604051610afb9190613007565b9081526020016040518091039020604051806040016040529081600082018054610b2490612fd3565b80601f0160208091040260200160405190810160405280929190818152602001828054610b5090612fd3565b8015610b9d5780601f10610b7257610100808354040283529160200191610b9d565b820191906000526020600020905b815481529060010190602001808311610b8057829003601f168201915b50505050508152602001600182018054610bb690612fd3565b80601f0160208091040260200160405190810160405280929190818152602001828054610be290612fd3565b8015610c2f5780601f10610c0457610100808354040283529160200191610c2f565b820191906000526020600020905b815481529060010190602001808311610c1257829003601f168201915b505050505081525050828281518110610c4a57610c4a61318e565b6020908102919091010152600101610ac5565b60085460609060009067ffffffffffffffff811115610c7e57610c7e612a80565b604051908082528060200260200182016040528015610cd357816020015b610cc060405180606001604052806060815260200160608152602001606081525090565b815260200190600190039081610c9c5790505b50905060005b600854811015610f935783604051602001610cf49190612fb7565b60405160208183030381529060405280519060200120600360088381548110610d1f57610d1f61318e565b90600052602060002001604051610d369190613007565b9081526020016040518091039020600201604051602001610d579190613007565b6040516020818303038152906040528051906020012003610f8b57600360088281548110610d8757610d8761318e565b90600052602060002001604051610d9e9190613007565b9081526020016040518091039020604051806060016040529081600082018054610dc790612fd3565b80601f0160208091040260200160405190810160405280929190818152602001828054610df390612fd3565b8015610e405780601f10610e1557610100808354040283529160200191610e40565b820191906000526020600020905b815481529060010190602001808311610e2357829003601f168201915b50505050508152602001600182018054610e5990612fd3565b80601f0160208091040260200160405190810160405280929190818152602001828054610e8590612fd3565b8015610ed25780601f10610ea757610100808354040283529160200191610ed2565b820191906000526020600020905b815481529060010190602001808311610eb557829003601f168201915b50505050508152602001600282018054610eeb90612fd3565b80601f0160208091040260200160405190810160405280929190818152602001828054610f1790612fd3565b8015610f645780601f10610f3957610100808354040283529160200191610f64565b820191906000526020600020905b815481529060010190602001808311610f4757829003601f168201915b505050505081525050828281518110610f7f57610f7f61318e565b60200260200101819052505b600101610cd9565b5092915050565b81604051602001610fab9190612fb7565b60405160208183030381529060405280519060200120600183604051610fd19190612fb7565b90815260405160209181900382018120610fed92909101613007565b60405160208183030381529060405280519060200120146110485760405162461bcd60e51b815260206004820152601560248201527410da5b995b5848191bd95cc81b9bdd08195e1a5cdd605a1b6044820152606401610491565b600060018360405161105a9190612fb7565b9081526040519081900360200190209050600281016104cb83826130ce565b8160405160200161108a9190612fb7565b604051602081830303815290604052805190602001206002836040516110b09190612fb7565b908152604051602091819003820181206110cc92909101613007565b60405160208183030381529060405280519060200120146111275760405162461bcd60e51b815260206004820152601560248201527414d8dc99595b88191bd95cc81b9bdd08195e1a5cdd605a1b6044820152606401610491565b60006002836040516104ac9190612fb7565b600b546001600160a01b031633146111935760405162461bcd60e51b815260206004820152601860248201527f756e74727573746564206d6573736167652073656e64657200000000000000006044820152606401610491565b600080546001600160a01b0319166001600160a01b0392909216919091179055565b60095460609060009067ffffffffffffffff8111156111d6576111d6612a80565b60405190808252806020026020018201604052801561122b57816020015b61121860405180606001604052806060815260200160608152602001606081525090565b8152602001906001900390816111f45790505b50905060005b600954811015610777576004600982815481106112505761125061318e565b906000526020600020016040516112679190613007565b908152602001604051809103902060405180606001604052908160008201805461129090612fd3565b80601f01602080910402602001604051908101604052809291908181526020018280546112bc90612fd3565b80156113095780601f106112de57610100808354040283529160200191611309565b820191906000526020600020905b8154815290600101906020018083116112ec57829003601f168201915b5050505050815260200160018201805461132290612fd3565b80601f016020809104026020016040519081016040528092919081815260200182805461134e90612fd3565b801561139b5780601f106113705761010080835404028352916020019161139b565b820191906000526020600020905b81548152906001019060200180831161137e57829003601f168201915b505050505081526020016002820180546113b490612fd3565b80601f01602080910402602001604051908101604052809291908181526020018280546113e090612fd3565b801561142d5780601f106114025761010080835404028352916020019161142d565b820191906000526020600020905b81548152906001019060200180831161141057829003601f168201915b5050505050815250508282815181106114485761144861318e565b6020908102919091010152600101611231565b8160405160200161146c9190612fb7565b604051602081830303815290604052805190602001206004836040516114929190612fb7565b908152604051602091819003820181206114ae92909101613007565b60405160208183030381529060405280519060200120146115075760405162461bcd60e51b8152602060048201526013602482015272119a5b1b48191bd95cc81b9bdd08195e1a5cdd606a1b6044820152606401610491565b60006004836040516104ac9190612fb7565b61153d60405180606001604052806060815260200160608152602001606081525090565b8160405160200161154e9190612fb7565b604051602081830303815290604052805190602001206003836040516115749190612fb7565b9081526040516020918190038201812061159092909101613007565b60405160208183030381529060405280519060200120146115ea5760405162461bcd60e51b8152602060048201526014602482015273141b1858d948191bd95cc81b9bdd08195e1a5cdd60621b6044820152606401610491565b6003826040516115fa9190612fb7565b908152602001604051809103902060405180606001604052908160008201805461162390612fd3565b80601f016020809104026020016040519081016040528092919081815260200182805461164f90612fd3565b801561169c5780601f106116715761010080835404028352916020019161169c565b820191906000526020600020905b81548152906001019060200180831161167f57829003601f168201915b505050505081526020016001820180546116b590612fd3565b80601f01602080910402602001604051908101604052809291908181526020018280546116e190612fd3565b801561172e5780601f106117035761010080835404028352916020019161172e565b820191906000526020600020905b81548152906001019060200180831161171157829003601f168201915b5050505050815260200160028201805461174790612fd3565b80601f016020809104026020016040519081016040528092919081815260200182805461177390612fd3565b80156117c05780601f10611795576101008083540402835291602001916117c0565b820191906000526020600020905b8154815290600101906020018083116117a357829003601f168201915b5050505050815250509050919050565b816040516020016117e19190612fb7565b604051602081830303815290604052805190602001206005836040516118079190612fb7565b9081526040516020918190038201812061182392909101613007565b604051602081830303815290604052805190602001201461187d5760405162461bcd60e51b81526020600482015260146024820152731058dd1bdc88191bd95cc81b9bdd08195e1a5cdd60621b6044820152606401610491565b60006005836040516104ac9190612fb7565b6040805180820190915260608082526020820152816040516020016118b49190612fb7565b604051602081830303815290604052805190602001206005836040516118da9190612fb7565b908152604051602091819003820181206118f692909101613007565b60405160208183030381529060405280519060200120146119505760405162461bcd60e51b81526020600482015260146024820152731058dd1bdc88191bd95cc81b9bdd08195e1a5cdd60621b6044820152606401610491565b6005826040516119609190612fb7565b908152602001604051809103902060405180604001604052908160008201805461198990612fd3565b80601f01602080910402602001604051908101604052809291908181526020018280546119b590612fd3565b8015611a025780601f106119d757610100808354040283529160200191611a02565b820191906000526020600020905b8154815290600101906020018083116119e557829003601f168201915b5050505050815260200160018201805461174790612fd3565b60065460609060009067ffffffffffffffff811115611a3c57611a3c612a80565b604051908082528060200260200182016040528015611aa157816020015b611a8e604051806080016040528060608152602001606081526020016060815260200160006001600160a01b031681525090565b815260200190600190039081611a5a5790505b50905060005b60065481101561077757600160068281548110611ac657611ac661318e565b90600052602060002001604051611add9190613007565b9081526020016040518091039020604051806080016040529081600082018054611b0690612fd3565b80601f0160208091040260200160405190810160405280929190818152602001828054611b3290612fd3565b8015611b7f5780601f10611b5457610100808354040283529160200191611b7f565b820191906000526020600020905b815481529060010190602001808311611b6257829003601f168201915b50505050508152602001600182018054611b9890612fd3565b80601f0160208091040260200160405190810160405280929190818152602001828054611bc490612fd3565b8015611c115780601f10611be657610100808354040283529160200191611c11565b820191906000526020600020905b815481529060010190602001808311611bf457829003601f168201915b50505050508152602001600282018054611c2a90612fd3565b80601f0160208091040260200160405190810160405280929190818152602001828054611c5690612fd3565b8015611ca35780601f10611c7857610100808354040283529160200191611ca3565b820191906000526020600020905b815481529060010190602001808311611c8657829003601f168201915b5050509183525050600391909101546001600160a01b03166020909101528251839083908110611cd557611cd561318e565b6020908102919091010152600101611aa7565b611d0c60405180606001604052806060815260200160608152602001606081525090565b81604051602001611d1d9190612fb7565b60405160208183030381529060405280519060200120600483604051611d439190612fb7565b90815260405160209181900382018120611d5f92909101613007565b6040516020818303038152906040528051906020012014611db85760405162461bcd60e51b8152602060048201526013602482015272119a5b1b48191bd95cc81b9bdd08195e1a5cdd606a1b6044820152606401610491565b6004826040516115fa9190612fb7565b6000600184604051611dda9190612fb7565b908152604051908190036020019020905080611df685826130ce565b5060018101611e0584826130ce565b5060028101611e1483826130ce565b50600680546001810182556000919091527ff652222313e28459528d920b65115c16c04f3efc82aaedc97be59f3f377c0d3f01611e5185826130ce565b50600054604051638036838960e01b81526001600160a01b0390911690638036838990611e829086906004016131a4565b6020604051808303816000875af1158015611ea1573d6000803e3d6000fd5b505050506040513d601f19601f82011682018060405250810190611ec591906131b7565b6003820180546001600160a01b0319166001600160a01b03929092169190911790556006546040517f5c26a99144f636b193e393dcd9e7b6a49a6ad716c2e097e7f18a3064e10ba0d390611f1e908790879087906131d4565b60405180910390a250505050565b611f5060405180606001604052806060815260200160608152602001606081525090565b81604051602001611f619190612fb7565b60405160208183030381529060405280519060200120600283604051611f879190612fb7565b90815260405160209181900382018120611fa392909101613007565b6040516020818303038152906040528051906020012014611ffe5760405162461bcd60e51b815260206004820152601560248201527414d8dc99595b88191bd95cc81b9bdd08195e1a5cdd605a1b6044820152606401610491565b6002826040516115fa9190612fb7565b60075460609060009067ffffffffffffffff81111561202f5761202f612a80565b60405190808252806020026020018201604052801561208457816020015b61207160405180606001604052806060815260200160608152602001606081525090565b81526020019060019003908161204d5790505b50905060005b600754811015610777576002600782815481106120a9576120a961318e565b906000526020600020016040516120c09190613007565b90815260200160405180910390206040518060600160405290816000820180546120e990612fd3565b80601f016020809104026020016040519081016040528092919081815260200182805461211590612fd3565b80156121625780601f1061213757610100808354040283529160200191612162565b820191906000526020600020905b81548152906001019060200180831161214557829003601f168201915b5050505050815260200160018201805461217b90612fd3565b80601f01602080910402602001604051908101604052809291908181526020018280546121a790612fd3565b80156121f45780601f106121c9576101008083540402835291602001916121f4565b820191906000526020600020905b8154815290600101906020018083116121d757829003601f168201915b5050505050815260200160028201805461220d90612fd3565b80601f016020809104026020016040519081016040528092919081815260200182805461223990612fd3565b80156122865780601f1061225b57610100808354040283529160200191612286565b820191906000526020600020905b81548152906001019060200180831161226957829003601f168201915b5050505050815250508282815181106122a1576122a161318e565b602090810291909101015260010161208a565b60075460609060009067ffffffffffffffff8111156122d5576122d5612a80565b60405190808252806020026020018201604052801561232a57816020015b61231760405180606001604052806060815260200160608152602001606081525090565b8152602001906001900390816122f35790505b50905060005b600754811015610f93578360405160200161234b9190612fb7565b604051602081830303815290604052805190602001206002600783815481106123765761237661318e565b9060005260206000200160405161238d9190613007565b90815260200160405180910390206002016040516020016123ae9190613007565b60405160208183030381529060405280519060200120036125e2576002600782815481106123de576123de61318e565b906000526020600020016040516123f59190613007565b908152602001604051809103902060405180606001604052908160008201805461241e90612fd3565b80601f016020809104026020016040519081016040528092919081815260200182805461244a90612fd3565b80156124975780601f1061246c57610100808354040283529160200191612497565b820191906000526020600020905b81548152906001019060200180831161247a57829003601f168201915b505050505081526020016001820180546124b090612fd3565b80601f01602080910402602001604051908101604052809291908181526020018280546124dc90612fd3565b80156125295780601f106124fe57610100808354040283529160200191612529565b820191906000526020600020905b81548152906001019060200180831161250c57829003601f168201915b5050505050815260200160028201805461254290612fd3565b80601f016020809104026020016040519081016040528092919081815260200182805461256e90612fd3565b80156125bb5780601f10612590576101008083540402835291602001916125bb565b820191906000526020600020905b81548152906001019060200180831161259e57829003601f168201915b5050505050815250508282815181106125d6576125d661318e565b60200260200101819052505b600101612330565b60006004846040516125fc9190612fb7565b90815260405190819003602001902090506002810161261b84826130ce565b508061262785826130ce565b506001810161263683826130ce565b50600980546001810182556000919091527f6e1540171b6c0c960b71a7020d9f60077f6af931a8bbf590da0223dacf75c7af0161267385826130ce565b506009546040517f04e8ff42cb101b272f7393e38414646706e29fc7f910d98489f0c798046c980090611f1e908790879087906131d4565b816040516020016126bc9190612fb7565b604051602081830303815290604052805190602001206001836040516126e29190612fb7565b908152604051602091819003820181206126fe92909101613007565b60405160208183030381529060405280519060200120146127765760405162461bcd60e51b815260206004820152602c60248201527f506c6163652073686f756c6420626520636f6e6e656374656420746f2065786960448201526b7374696e672063696e656d6160a01b6064820152608401610491565b60006003846040516127889190612fb7565b9081526040519081900360200190209050806127a485826130ce565b50600181016127b383826130ce565b50600281016127c284826130ce565b50600880546001810182556000919091527ff3f7a9fe364faab93b216da50a3214154f22a0a2b415b23a84c8169e8b636ee3016127ff85826130ce565b506008546040517fb450fdf7ef145bde8c09f4226862595784a06e108e9a19bbc6acba53d93a83d190611f1e908790879087906131d4565b816040516020016128489190612fb7565b6040516020818303038152906040528051906020012060038360405161286e9190612fb7565b9081526040516020918190038201812061288a92909101613007565b60405160208183030381529060405280519060200120146129025760405162461bcd60e51b815260206004820152602c60248201527f53637265656e2073686f756c6420626520636f6e6e656374656420746f20657860448201526b697374696e6720706c61636560a01b6064820152608401610491565b60006002846040516129149190612fb7565b90815260405190819003602001902090508061293085826130ce565b506001810161293f83826130ce565b506002810161294e84826130ce565b50600780546001810182556000919091527fa66cc928b5edb82af9bd49922954155ab7b0942694bea4ce44661d9a8736c6880161298b85826130ce565b506007546040517f3c8baa5934b9a2ccc0f7e8146197140be38687e3f09ec06c45bfb297ccc6003b90611f1e908790879087906131d4565b60006005836040516129d59190612fb7565b9081526040519081900360200190209050806129f184826130ce565b5060018101612a0083826130ce565b50600a80546001810182556000919091527fc65a7bb8d6351c1cf70c95a316cc6a92839c986682d98bc35f958f4883f9d2a801612a3d84826130ce565b50600a546040517fd7accb00266cbde0d23f2017eadc4ec74b4e15347380b803be10cfe6102e50f190612a739086908690613217565b60405180910390a2505050565b634e487b7160e01b600052604160045260246000fd5b600082601f830112612aa757600080fd5b813567ffffffffffffffff80821115612ac257612ac2612a80565b604051601f8301601f19908116603f01168101908282118183101715612aea57612aea612a80565b81604052838152866020858801011115612b0357600080fd5b836020870160208301376000602085830101528094505050505092915050565b60008060408385031215612b3657600080fd5b823567ffffffffffffffff80821115612b4e57600080fd5b612b5a86838701612a96565b93506020850135915080821115612b7057600080fd5b50612b7d85828601612a96565b9150509250929050565b60005b83811015612ba2578181015183820152602001612b8a565b50506000910152565b60008151808452612bc3816020860160208601612b87565b601f01601f19169290920160200192915050565b6000815160608452612bec6060850182612bab565b905060208301518482036020860152612c058282612bab565b91505060408301518482036040860152612c1f8282612bab565b95945050505050565b600060208083016020845280855180835260408601915060408160051b87010192506020870160005b82811015612c7f57603f19888603018452612c6d858351612bd7565b94509285019290850190600101612c51565b5092979650505050505050565b600060208284031215612c9e57600080fd5b813567ffffffffffffffff811115612cb557600080fd5b612cc184828501612a96565b949350505050565b6000815160808452612cde6080850182612bab565b905060208301518482036020860152612cf78282612bab565b91505060408301518482036040860152612d118282612bab565b6060948501516001600160a01b03169590940194909452509092915050565b602081526000612d436020830184612cc9565b9392505050565b6000815160408452612d5f6040850182612bab565b905060208301518482036020860152612c1f8282612bab565b600060208083016020845280855180835260408601915060408160051b87010192506020870160005b82811015612c7f57603f19888603018452612dbd858351612d4a565b94509285019290850190600101612da1565b6001600160a01b0381168114612de457600080fd5b50565b600060208284031215612df957600080fd5b8135612d4381612dcf565b600060208083016020845280855180835260408601915060408160051b87010192506020870160005b82811015612c7f57603f19888603018452612e49858351612bd7565b94509285019290850190600101612e2d565b602081526000612d436020830184612bd7565b602081526000612d436020830184612d4a565b600060208083016020845280855180835260408601915060408160051b87010192506020870160005b82811015612c7f57603f19888603018452612ec6858351612cc9565b94509285019290850190600101612eaa565b600080600060608486031215612eed57600080fd5b833567ffffffffffffffff80821115612f0557600080fd5b612f1187838801612a96565b94506020860135915080821115612f2757600080fd5b612f3387838801612a96565b93506040860135915080821115612f4957600080fd5b50612f5686828701612a96565b9150509250925092565b600060208083016020845280855180835260408601915060408160051b87010192506020870160005b82811015612c7f57603f19888603018452612fa5858351612bd7565b94509285019290850190600101612f89565b60008251612fc9818460208701612b87565b9190910192915050565b600181811c90821680612fe757607f821691505b60208210810361077757634e487b7160e01b600052602260045260246000fd5b600080835461301581612fd3565b6001828116801561302d576001811461304257613071565b60ff1984168752821515830287019450613071565b8760005260208060002060005b858110156130685781548a82015290840190820161304f565b50505082870194505b50929695505050505050565b601f8211156130c9576000816000526020600020601f850160051c810160208610156130a65750805b601f850160051c820191505b818110156130c5578281556001016130b2565b5050505b505050565b815167ffffffffffffffff8111156130e8576130e8612a80565b6130fc816130f68454612fd3565b8461307d565b602080601f83116001811461313157600084156131195750858301515b600019600386901b1c1916600185901b1785556130c5565b600085815260208120601f198616915b8281101561316057888601518255948401946001909101908401613141565b508582101561317e5787850151600019600388901b60f8161c191681555b5050505050600190811b01905550565b634e487b7160e01b600052603260045260246000fd5b602081526000612d436020830184612bab565b6000602082840312156131c957600080fd5b8151612d4381612dcf565b6060815260006131e76060830186612bab565b82810360208401526131f98186612bab565b9050828103604084015261320d8185612bab565b9695505050505050565b60408152600061322a6040830185612bab565b8281036020840152612c1f8185612bab56fea2646970667358221220d060e71b3d4a293fe7cfb13a6a1697cd69266143377918610a3ff95acf22310a64736f6c63430008180033",
  "linkReferences": {},
  "deployedLinkReferences": {}
}